:020000040000fa
:080000000001040000000000f3
:020000040000fa
:04000800b80200003a
:020000040000fa
:04000c00b802000036
:020000040000fa
:04001000b802000032
:020000040000fa
:04001400b80200002e
:020000040000fa
:04001800b80200002a
:020000040000fa
:04001c00b802000026
:020000040000fa
:04002000b802000022
:020000040000fa
:04002400b80200001e
:020000040000fa
:04002800b80200001a
:020000040000fa
:04002c00b802000016
:020000040000fa
:04003000b802000012
:020000040000fa
:040034004a0200007c
:020000040000fa
:04003800b80200000a
:020000040000fa
:04003c00b802000006
:020000040000fa
:040040002802000092
:020000040000fa
:04004400b8020000fe
:020000040000fa
:04004800b8020000fa
:020000040000fa
:04004c00c8010000e7
:020000040000fa
:04005000b8020000f2
:020000040000fa
:0400540004020000a2
:020000040000fa
:04005800b8020000ea
:020000040000fa
:04005c00b8020000e6
:020000040000fa
:04006000b8020000e2
:020000040000fa
:04006400b8020000de
:020000040000fa
:040068008a02000008
:020000040000fa
:04006c00b8020000d6
:020000040000fa
:04007000b8020000d2
:020000040000fa
:04007400b8020000ce
:020000040000fa
:04007800b8020000ca
:020000040000fa
:04007c00b8020000c6
:020000040000fa
:04008000b8020000c2
:020000040000fa
:04008400b8020000be
:020000040000fa
:04008800b8020000ba
:020000040000fa
:04008c00b8020000b6
:020000040000fa
:04009000b8020000b2
:020000040000fa
:04009400b8020000ae
:020000040000fa
:04009800b8020000aa
:020000040000fa
:04009c00b8020000a6
:020000040000fa
:0400a000b8020000a2
:020000040000fa
:0400a400b80200009e
:020000040000fa
:0400a800b80200009a
:020000040000fa
:0400ac00b802000096
:020000040000fa
:0400b000b802000092
:020000040000fa
:0400b400b80200008e
:020000040000fa
:0400b800b80200008a
:020000040000fa
:0400bc00b802000086
:020000040000fa
:0400c000b802000082
:020000040000fa
:0400c400b80200007e
:020000040000fa
:0400c800b80200007a
:020000040000fa
:0400cc00b802000076
:020000040000fa
:0400d000b802000072
:020000040000fa
:0400d400b80200006e
:020000040000fa
:0400d800b80200006a
:020000040000fa
:04010800b802000039
:020000040000fa
:04010c00b802000035
:020000040000fa
:04011000b802000031
:020000040000fa
:04011400b80200002d
:020000040000fa
:04011800b802000029
:020000040000fa
:04011c00b802000025
:020000040000fa
:04012000b802000021
:020000040000fa
:04012400b80200001d
:020000040000fa
:04012800b802000019
:020000040000fa
:04012c00b802000015
:020000040000fa
:04013000b802000011
:020000040000fa
:04013400b80200000d
:020000040000fa
:04013800b802000009
:020000040000fa
:04013c00b802000005
:020000040000fa
:04014000b802000001
:020000040000fa
:04014400b8020000fd
:020000040000fa
:04014800b8020000f9
:020000040000fa
:04014c00b8020000f5
:020000040000fa
:04015000b8020000f1
:020000040000fa
:04015400b8020000ed
:020000040000fa
:04015800b8020000e9
:020000040000fa
:04015c00b8020000e5
:020000040000fa
:04016000b8020000e1
:020000040000fa
:04016400b8020000dd
:020000040000fa
:04016800b8020000d9
:020000040000fa
:04016c00b8020000d5
:020000040000fa
:04017000b8020000d1
:020000040000fa
:04017400b8020000cd
:020000040000fa
:04017800b8020000c9
:020000040000fa
:04017c00b8020000c5
:020000040000fa
:04018000b8020000c1
:020000040000fa
:04018400b8020000bd
:020000040000fa
:04018800b8020000b9
:020000040000fa
:04018c00b8020000b5
:020000040000fa
:04019000b8020000b1
:020000040000fa
:04019400b8020000ad
:020000040000fa
:04019800b8020000a9
:020000040000fa
:04019c00b8020000a5
:020000040000fa
:0401a000b8020000a1
:020000040000fa
:0401a400b80200009d
:020000040000fa
:0401a800b802000099
:020000040000fa
:0401ac00b802000095
:020000040000fa
:0401b000b802000091
:020000040000fa
:0401b400b80200008d
:020000040000fa
:0401b800b802000089
:020000040000fa
:0401bc00b802000085
:020000040000fa
:0401c000b802000081
:020000040000fa
:0401c400b80200007d
:020000040000fa
:0401c800b802000079
:020000040000fa
:0401cc00b802000075
:020000040000fa
:0401d000b802000071
:020000040000fa
:0401d400b80200006d
:020000040000fa
:0401d800b802000069
:020000040000fa
:100200002f8720000eff20000e0188000000000054
:10021000000020000000e000020032000001200089
:100220002002880014000700d30007000000e0004f
:1002300003003a00608e2200010020000200370017
:100240000000200001002000810f7000010032003a
:1002500014000700000020000000e000020032004f
:1002600000000200000000008010020000000000fa
:100270000040da000000fe004440a90040b5200024
:100280000000e0000300320000002000a001880010
:100290004440a800000006008a1f78008b1f7800e9
:1002a0000000060091018800800478000000eb0047
:1002b0001a003700e284440032a0b4009905ba0065
:1002c000e284440032a0b4009906ba00e2844400fb
:1002d00032a0b4000006eb00476fde00fd07b2005d
:1002e000636ce10003003a00ebff07000000eb0045
:1002f0000a003700606ce10004003a00005deb008a
:100300008b05e900fdff3e00040037006168e10055
:10031000010032000086eb000b00070019c7ba008d
:100320001905ba000e04e00003003a000a00e000dc
:10033000e0ff3a0000000600fe07b2009e018800c0
:100340008a047800f5ff3700395dba008b05e900b3
:100350000c003200295dba008b05e900080032006c
:100360000c00e00003003a00e284440032a0b40034
:10037000f5ff370019ddba008b05e900faff3a00f6
:100380008904e800e184440032a0b40000000600c3
:10039000809fbe00821f78003400f800000020001b
:1003a000a00188000000fa008520a90090108000bc
:1003b0000040780038e8b70090428000ef0f50000e
:1003c0000a003c009242800038c8bf00804078009c
:1003d0009083200000004100014878009042800096
:1003e0000000e80090428800020037001000200062
:1003f000a04288000080fa003400f9004f01780024
:100400004f00be0000400600801f78003400f80056
:1004100000002000a00188000000fa000014800005
:10042000b040880010148000a0408800b0408000d8
:1004300000418800a0408000104188008560a9002c
:100440000080fa003400f9004f00780000400600f8
:10045000801f78003400f80000002000a001880010
:100460000000fa000621ef00404080000000e80094
:1004700040408800104080000000e80010408800e4
:1004800084c0a9000080fa003400f9004f00780011
:1004900000400600801f78003400f80000002000b3
:1004a000a00188000000fa000021ef000040800059
:1004b0000000e80000408800204080000000e800c4
:1004c0002040880020408000e10f500004003600ea
:1004d00030408000e10f500001003a00c562a800e2
:1004e00020408000e60f50000500360030408000bc
:1004f000e10f500002003a00c562a9000428ef0095
:100500008460a9000080fa003400f9004f007800f0
:10051000004006003600f800809fbe00829fbe00ab
:10052000849fbe00869fbe003400f80000002000bb
:10053000a00188000000fa008e00a9008600a90032
:1005400010002000061007008e00a8008600a900f9
:100550000080fa003400f9004f03be004f02be00d5
:100560004f01be004f00be003600f90000400600fb
:100570000040da000000fe0000000500889fbe0079
:100580008a9fbe008c1f780099000700a0003300ee
:1005900003866c006450e1002e0032006420e1000c
:1005a000330032006150e1002f0032006120e10091
:1005b0003100320085855500eb07b00009002000ae
:1005c00008042000050037000804440089844c001a
:1005d0000a0031000603430087834b0000015300eb
:1005e00081815b00f8ff33000203be000800a00019
:1005f0000804440089844c00f6ff3900c639dd0048
:100600008301730001003200130020008904d1002f
:100610000884d3000998a300050032000800a70051
:100620000300a0008904d1000884d3008b05e800f2
:100630008904d1000884d3000001eb000281d200bc
:100640003000070001f0a1000cf0a70001f0a000ad
:10065000780037006420e1007a0032000801be0013
:100660000200be00f7ff37006120e1007500320094
:100670006000b800f3ff37000000200001f82700f9
:10068000f0ff37000001be00440007000470a7001f
:1006900003f0a10003f8a30013003a006509b100bc
:1006a00010003200090035006928e1000200350021
:1006b0000100280000000500000040008180480083
:1006c0008502e900fcff3a0000000600f88f4200b6
:1006d000050035008100d1000080d3008502e800cc
:1006e000fcff3a00000006008000eb00000005005f
:1006f0004f89de0082017800890037006011b80060
:100700009700370081002000618055000b003d00fc
:100710000b00200061fe2f000100e1001d003400ed
:1007200082817100610164008904d1000884d300d2
:100730000000e800faff3a00710020006100640048
:1007400003007000020060000900320061044400f0
:10075000e0844c000988a500050032008b05e80004
:100760006808e10002003a008904d1000884d3003f
:10077000f20f20000258e10005003d00c75ddd00da
:10078000f907b200898075000800780000000600b3
:100790000bf827008b00780000000500c70ade0078
:1007a000f107b200f50fb20008003200e1cf4200bd
:1007b000020032000170a00024000500810f7000cb
:1007c000010032000408050044000500810f70009c
:1007d00002003a00140005008502e9000000400014
:1007e00081c04800fcff3b000170a0002400050010
:1007f0000004be00e9ff07000003be000405be00c0
:100800000200be00e5ff0700844f750000000600ef
:100810000200be006450e100050036006420e100e3
:10082000020036000968a30001003a000800be007b
:100830000160a0004f0678004f05be004f04be00c7
:1008400000000600f0ff2f00f1ff2700f9ff37003e
:10085000889fbe008a9fbe008c1f7800e4ff0700bf
:10086000ebff330003866c006450e100240032008b
:100870006420e100270032006150e10022003200d4
:100880006120e100210032008b854200eb07b100be
:100890000134b800003ab8000804420089844a00d4
:1008a000013ab8000030b8008880400009014a00d1
:1008b000040033000000400081804800020149002c
:1008c0008b05e900c909dd008301700001003200d9
:1008d00013002000c814de004814dd004709de00c4
:1008e0001200b200c808de000884700085ff07000f
:1008f00001f0a1000cf0a70001f0a000cdff37002f
:100900006120e100cfff32000801be000200be00fe
:10091000f7ff37006150e100fcff3a00c9ff3700e4
:10092000881f7800030478000300e00007003d0002
:1009300060001000e080180060011900e0811900db
:1009400002003b0001f02d00030037000400070007
:1009500008f0a70001f0a0004f0478000000060096
:10096000889fbe008a9fbe00008270000402710052
:1009700004827100260032000004be000200be00a6
:100980006011b8006b092000950220000182cf00a1
:100990000a0039000541b1000082cf00070039008c
:1009a0000541b1000982cf00040039000541b100c2
:1009b0000882cf00010039000541b1000542520014
:1009c000120032000a003b00828171006101640064
:1009d0008100d1000080d3008984d3000884d30033
:1009e0008b05e8000442e800f7ff3a0007003700f3
:1009f0000804440089844c000000480081804800bd
:100a00008b05e9000442e900f9ff3a003dff0700c9
:100a10004f05be004f04be00000006000a0037006c
:100a2000b04178000304e000030032000201e90055
:100a3000b1cf5100040032008381fb001480fb0021
:100a40000080510000000600010278000200e00072
:080a5000f3ff3a00000005006d
:020000040000fa
:100a5800000000000000000000000000000000008e
:100a6800000000000000000000000000000000007e
:100a7800000000003eff0000ff3e000000000000f4
:100a880000000000000d00000d0000000000000044
:100a98000004000007030000000400000703000032
:100aa800000000000000000000000000000000003e
:100ab80010fe0000fe10000010fe0000fe100000f6
:100ac800010f00000f010000010f00000f010000de
:100ad8001c3e000022ff0000ff420000ce8c0000f8
:100ae80003070000040f00000f04000007030000c4
:100af8000000000006c60000f03c00000e020000e6
:100b080000040000070300000006000006000000c3
:100b18001e3f0000e1c10000412100003f1e00000f
:100b2800060f0000090900000b0c00001e1600004b
:100b3800000000000407000003000000000000009f
:100b4800000000000000000000000000000000009d
:100b580000000000f8fe000007010000000000008f
:100b680000000000000700000e0800000000000060
:100b78000000000001070000fef80000000000006f
:100b880000000000080e000007010000000000003f
:100b980020a80000f870000070f80000a8200000ed
:100ba800000000000000000000000000000000003d
:100bb8002020000020fc0000fc2000002020000075
:100bc800000000000001000001000000000000001b
:100bd800000000000000000000000000000000000d
:100be80000000000203c00001c0000000000000085
:100bf80020200000202000002020000020200000ed
:100c080000000000000000000000000000000000dc
:100c180000000000000000000000000000000000cc
:100c280000000000000c00000c00000000000000a4
:100c38000000000000c00000f03c00000f030000ae
:100c4800000c00000f03000000000000000000007e
:100c5800feff00000101000001010000fffe00008e
:100c6800070f000008080000080800000f07000030
:100c78000004000006ff0000ff0000000000000064
:100c880000080000080f00000f080000080000001e
:100c98000203000081c10000613100001f0e000046
:100ca8000e0f00000908000008080000080c0000ea
:100cb800020300000121000021210000ffde0000e6
:100cc800040c000008080000080800000f070000d6
:100cd800e0f00000988c000086ff0000ff00000094
:100ce8000000000000000000080f00000f080000ce
:100cf8003f3f00002121000021210000e1c1000048
:100d0800040c000008080000080800000f07000095
:100d1800fcfe00002321000021210000e0c00000ab
:100d2800070f000008080000080800000f0700006f
:100d38000303000001810000e17900001f070000a3
:100d480000000000000f00000f000000000000007d
:100d5800deff00002121000021210000ffde00004d
:100d6800070f000008080000080800000f0700002f
:100d78001e3f00002121000021210000fffe00008d
:100d88000008000008080000080c00000703000025
:100d9800000000000018000018000000000000001b
:100da800000000000006000006000000000000002f
:100db80000000000001800001800000000000000fb
:100dc80000000000101e00000e00000000000000df
:100dd80040e00000b01800000c060000020000000f
:100de8000000000001030000060c000008000000dd
:100df80000a00000a0a00000a0a00000a00000002b
:100e080000000000000000000000000000000000da
:100e180000020000060c000018b00000e0400000ce
:100e2800000800000c06000003010000000000009c
:100e38000203000001c10000e13100001f0e0000a4
:100e480000000000000d00000d0000000000000080
:100e58000203000001c10000e13100001f0e000084
:100e680000000000000d00000d0000000000000060
:100e7800f8fc00008683000083860000fcf8000070
:100e88000f0f000000000000000000000f0f00001e
:100e9800ffff00002121000021210000ffde0000eb
:100ea8000f0f000008080000080800000f070000e6
:100eb800fcfe000003010000010100000306000021
:100ec800030700000c080000080800000c060000da
:100ed80001ff0000ff01000001030000fefc00000c
:100ee800080f00000f080000080c000007030000ae
:100ef80001ff0000ff210000217100000303000032
:100f0800080f00000f080000080800000c0c000083
:100f180001ff0000ff210000217100000303000011
:100f2800080f00000f08000000000000000000008b
:100f3800fcfe00000301000041410000c3c60000a0
:100f4800030700000c08000008080000070f000055
:100f5800ffff00002020000020200000ffff00000d
:100f68000f0f000000000000000000000f0f00003d
:100f78000001000001ff0000ff0100000100000067
:100f880000080000080f00000f080000080000001b
:100f9800000000000000000001ff0000ff01000049
:100fa800060e000008080000080f000007000000f7
:100fb80001ff0000ff700000d88c0000070300004c
:100fc800080f00000f000000000100000f0e0000d5
:100fd80001ff0000ff010000000000000000000009
:100fe800080f00000f080000080800000c0c0000a3
:100ff800ffff00000c780000780c0000ffff0000e5
:101008000f0f000000000000000000000f0f00009c
:10101800ffff00001c38000070e00000ffff000028
:101028000f0f000000000000000000000f0f00007c
:10103800feff00000101000001010000fffe0000aa
:10104800070f000008080000080800000f0700004c
:1010580001ff0000ff210000212100003f1e0000c9
:10106800080f00000f08000000000000000000004a
:10107800feff00000101000001010000fffe00006a
:10108800070f0000080e00001c3800002f070000a2
:1010980001ff0000ff21000021610000ff9e000009
:1010a800080f00000f080000000000000f0f0000ec
:1010b8000e1f00003121000021610000c7860000da
:1010c800060e000008080000080800000f070000ce
:1010d8000303000001ff0000ff01000003030000fc
:1010e80000000000080f00000f08000000000000ca
:1010f800ffff00000000000000000000ffff0000ec
:10110800070f000008080000080800000f0700008b
:10111800ffff00000000000000000000ffff0000cb
:1011280001030000060c00000c060000030100008b
:10113800ffff000000e00000e0000000ffff0000eb
:10114800010f00000e030000030e00000f01000055
:10115800070f000098f00000f09800000f0700004b
:101168000e0f000001000000000100000f0e00003b
:101178000f1f000030e00000e03000001f0f0000eb
:1011880000000000080f00000f0800000000000029
:1011980003830000c1610000311900000f0700003f
:1011a8000f0f000008080000080800000c0c0000e1
:1011b80000000000ffff0000010100000000000027
:1011c800000000000f0f00000808000000000000e9
:1011d80055aa000055aa000055aa000055aa00000b
:1011e80055aa000055aa000055aa000055aa0000fb
:1011f8000000000001010000ffff000000000000e7
:1012080000000000080800000f0f000000000000a8
:10121800080c000006030000030600000c0800008c
:1012280000000000000000000000000000000000b6
:1012380000000000000000000000000000000000a6
:101248001010000010100000101000001010000016
:1012580000000000080f0000070000000000000068
:101268000000000000000000000000000000000076
:10127800009000009090000090f00000e000000056
:10128800070f000008080000080700000f0800000a
:1012980001ff0000ff10000010300000e0c0000057
:1012a800080f000007080000080800000f070000ea
:1012b800e0f00000101000001010000030200000c6
:1012c800070f000008080000080800000c040000d0
:1012d800c0e000003010000011ff0000ff00000017
:1012e800070f000008080000080700000f080000aa
:1012f800e0f000009090000090900000f0e0000006
:10130800070f000008080000080800000c0400008f
:1013180000100000feff0000111100000302000091
:10132800000800000f0f0000080000000000000087
:10133800e0f000001010000010e00000f0100000c5
:10134800276f000048480000487f00003f00000069
:1013580001ff0000ff20000010100000f0e0000076
:10136800080f00000f000000000000000f0f000031
:101378000010000010f60000f60000000000000059
:1013880000080000080f00000f0800000800000017
:101398000000000010100000f6f600000000000039
:1013a80030600000404000007f3f00000000000067
:1013b80001ff0000ffc00000c06000003010000006
:1013c800080f00000f000000010300000e0c0000d1
:1013d8000001000001ff0000ff0000000000000005
:1013e80000080000080f00000f08000008000000b7
:1013f800f0f0000030e00000e0300000f0e0000015
:101408000f0f000000070000070000000f0f00008a
:1014180010f00000e010000010100000f0e00000e4
:10142800000f00000f000000000000000f0f000078
:10143800e0f000001010000010100000f0e00000c4
:10144800070f000008080000080800000f07000048
:1014580010f00000e010000010100000f0e00000a4
:10146800407f00007f480000080800000f070000c8
:10147800e0f000001010000010e00000f010000084
:10148800070f000008080000487f00007f400000a8
:1014980010f00000e01000001010000030200000e4
:1014a800000f00000f000000000000000000000016
:1014b80060f00000909000009010000030200000c4
:1014c800040c000008080000090900000f060000cd
:1014d80010100000feff00001010000000000000c7
:1014e80000000000070f0000080c000004000000c6
:1014f800f0f000000000000000f00000f000000024
:10150800070f000008080000080700000f08000087
:10151800f0f000000000000000000000f0f0000003
:1015280001030000060c00000c0600000301000087
:10153800f0f000000080000080000000f0f00000e3
:10154800070f00000c070000070c00000f07000041
:101558001030000060c00000c060000030100000c3
:10156800080c000006030000030600000c08000039
:10157800f0f000000000000000000000f0f00000a3
:10158800474f000048480000486800003f1f00001f
:101598003030000010900000d070000030100000c3
:1015a8000c0e00000b090000080800000c0c0000dd
:1015b800000000000000000000000000005f0000c4
:1015c80000000000000700000007000000140000f1
:1015d8007f1400007f140000242a00007f2a0000e6
:1015e800122300001308000064620000364900005e
:1015f8005522000050000000050300000000000014
:10160800001c0000224100000000000041220000f0
:101618001c000000082a00001c2a0000080800001e
:10162800083e0000080800000050000030000000dc
:10163800000800000808000008080000003000004a
:101648003000000000200000100800000402000024
:101658003e510000494500003e000000427f000066
:10166800400000004261000051490000462100008e
:10167800414500004b31000018140000127f0000a3
:101688001027000045450000453900003c4a00008d
:1016980049490000300100007109000005030000fd
:1016a8003649000049490000360600004949000053
:1016b800291e00000036000036000000000000006f
:1016c8005636000000000000000800001422000048
:1016d80041140000141400001414000041220000fa
:1016e8001408000000020000015100000906000073
:1016f80032490000794100003e7e000011110000cf
:10170800117e00007f49000049490000363e000074
:1017180041410000412200007f41000041220000b9
:101728001c7f000049490000494100007f09000072
:1017380009010000013e0000414100005132000053
:101748007f080000080800007f000000417f0000bb
:101758004100000020400000413f0000017f0000e0
:1017680008140000224100007f40000040400000b3
:10177800407f000002040000027f00007f04000098
:10178800081000007f3e000041410000413e00007b
:101798007f09000009090000063e000041510000d1
:1017a800215e00007f09000019290000464600005c
:1017b8004949000049310000010100007f01000093
:1017c800013f000040400000403f00001f20000093
:1017d800402000001f7f000020180000207f00002c
:1017e800631400000814000063030000047800007c
:1017f8000403000061510000494500004300000057
:10180800007f0000414100000204000008100000b1
:1018180020410000417f0000000000000402000099
:101828000102000004400000404000004040000069
:1018380000010000020400000020000054540000d1
:10184800547800007f480000444400003838000005
:10185800444400004420000038440000444800008c
:101868007f3800005454000054180000087e00001f
:10187800090100000208000014540000543c000054
:101888007f0800000404000078000000447d000088
:101898004000000020400000443d0000000000001f
:1018a8007f10000028440000004100007f40000035
:1018b800007c000004180000047800007c08000088
:1018c8000404000078380000444400004438000054
:1018d8007c14000014140000080800001414000010
:1018e800187c00007c080000040400000848000080
:1018f8005454000054200000043f000044400000fd
:10190800203c000040400000207c00001c2000001b
:10191800402000001c3c000040300000403c00001b
:101928004428000010280000440c0000505000001b
:10193800503c000044640000544c00004400000087
:101948000836000041000000000000007f00000091
:1019580000000000413600000800000008080000f0
:101968002a1c0000080800001c2a000008080000c3
:10197800000000000000000000000000000000005f
:10198800000000000000000000000000000000004f
:10199800000000000000000000000000000000003f
:1019a800000000000000000000000000000000002f
:101db800416c0000617200006d2000006973000032
:101dc800206100006c720000656100006479000009
:101dd800206f00006e21000021210000200a000071
:101de800004100006c610000726d00002069000075
:101df800732000006f6e00002121000021200000e8
:101e08000a000000416c0000617200006d200000b3
:101e180069730000206100006c72000065610000b9
:101e280064790000206f0000666600002121000030
:101e3800212000000a000000416c000061720000cf
:101e48006d20000069730000206f000066660000c6
:101e580021210000212000000a0000005468000031
:101e680065200000646f00006f72000020690000a8
:101e780073200000616c000072650000616400005e
:101e8800792000006f700000656e000021210000bd
:101e9800212000000a0000005468000065200000ae
:101ea800646f00006f72000020690000732000005a
:101eb8006f700000656e000065640000212100005d
:101ec800212000000a00000054680000652000007e
:101ed800646f00006f72000020690000732000002a
:101ee800616c0000726500006164000079200000e8
:101ef800636c00006f73000065640000212100001e
:101f0800212000000a00000054680000652000003d
:101f1800646f00006f7200002069000073200000e9
:101f2800636c00006f7300006564000021210000ed
:101f3800212000000a0000005061000073730000b7
:101f4800776f0000726400002069000073200000b1
:101f580063680000616e000067650000642000008f
:101f680021210000212000000a000000506100002b
:101f780073730000776f000072640000206d00002a
:101f88007573000074200000636f00006e74000019
:101f9800616900006e200000666f00007572000025
:101fa800206e0000756d000062650000727300000d
:101fb80020280000667200006f6d000020310000cc
:101fc800207400006f200000392900002121000042
:101fd8002120000054720000792000006167000091
:101fe800616900006e3a0000005000006c65000056
:101ff8006173000065200000656e000074650000d4
:10200800722000006e6500007720000070610000fb
:1020180073730000776f0000726400003a200000bc
:10202800005300006f6d00006574000068690000cf
:102038006e670000206900007320000077720000be
:102048006f6e000067210000200a000000000000f9
:102058003f000000100e0000bd0000007a0d0000d7
:10206800430000004f4b0000003100000032000028
:102078000033000000340000003500000036000086
:102088000037000000380000003900000050000050
:1020980061730000737700006f720000643a0000fb
:1020a8002000000020200000202000002020000048
:1020b8002020000020000000436f00007272000022
:1020c800656300007421000000540000727900006c
:1020d8002061000067610000696e000021000000b7
:1020e80020200000202000002020000020200000e8
:0820f8002020000000000000a0
:020000040000fa
:102100000000fa00eb0b0700e30b0700a1e2a800b8
:10211000240c0700190c0700fd0807006f0b0700cf
:10212000790407003c08070078050700b30507009d
:1021300017090700a942a800c742a900cb42a9007d
:10214000b80807000000eb00bb08070010002000e3
:10215000004388002a0b0700fc08070083003700b3
:102160000000000081003700000000007f00370001
:10217000000000007d003700000000007b003700f9
:1021800000000000790037000000000077003700f1
:1021900000000000750037000000000073003700e9
:1021a0000000000071003700000000006f003700e1
:1021b000000000006d003700000000006b003700d9
:1021c00000000000690037000000000067003700d1
:1021d00000000000650037000000000063003700c9
:1021e0000000000061003700000000005f003700c1
:1021f000000000005d003700000000005b003700b9
:1022000000000000590037000000000057003700b0
:1022100000000000550037000000000053003700a8
:102220000000000051003700000000004f003700a0
:10223000000000004d003700000000004b00370098
:102240000000000049003700000000004700370090
:102250000000000045003700000000004300370088
:102260000000000041003700000000003f00370080
:10227000000000003d003700000000003b00370078
:102280000000000039003700000000003700370070
:102290000000000035003700000000003300370068
:1022a0000000000031003700000000002f00370060
:1022b000000000002d003700000000002b00370058
:1022c0000000000029003700000000002700370050
:1022d0000000000025003700000000002300370048
:1022e0000000000021003700000000001f00370040
:1022f000000000001d003700000000001b00370038
:10230000000000001900370000000000170037002f
:102310000000000015003700000000001300370027
:102320000000000011003700000000000f0037001f
:10233000000000000d003700000000000b00370017
:10234000000000000900370000000000070037000f
:102350000000000005003700000000000300370007
:10236000000000000100370000000000bb0707006c
:10237000fd080700a70a070091832000914078001c
:1023800030c5b30080cf500052003a00a183200036
:102390009140780040c5b30080cf50004d003a0016
:1023a000b18320009140780010c4b30080cf50006a
:1023b00048003a00c18320009140780020c5b30056
:1023c00080cf500043003a00d18320009140780034
:1023d00040c5b30080cf50003e003a00e1832000aa
:1023e0009140780000c2b30080cf500039003a001d
:1023f000f18320009140780010c4b30080cf5000da
:1024000034003a000184200091407800c0c4b30039
:1024100080cf50002f003a001184200091407800b6
:1024200010c4b30080cf50002a003a00218420005d
:102430009140780020c5b30080cf500025003a00bd
:102440003184200091407800d0c4b30080cf500088
:1024500020003a00a04280000000e0001d003a0089
:10246000d0428000e10f500003003a00c0ed280088
:10247000a70a07000800370010002000d04288009b
:1024800050ef2800a20a07005c28ef008600a90090
:1024900010002000230807005628ef00080037002e
:1024a000b142800090832000008040008040eb001b
:1024b00001487800b04280000000e800b042880087
:1024c000b0428000ee0f5000f5ff34005228ef00bc
:1024d00032033700918320009140780030c5b3006b
:1024e00080cf50004c003a00a1832000914078003a
:1024f00040c5b30080cf500047003a00b1832000b0
:1025000091407800f0c4b30080cf500042003a0000
:10251000c18320009140780000c5b30080cf5000f7
:102520003d003a00d18320009140780000c2b30002
:1025300080cf500038003a00e183200091407800bd
:1025400010c4b30080cf500033003a00f183200064
:1025500091407800c0c4b30080cf50002e003a00f4
:10256000018420009140780010c4b30080cf500057
:1025700029003a00118420009140780020c5b30062
:1025800080cf500024003a00218420009140780040
:10259000d0c4b30080cf50001f003a00a04280009a
:1025a0000000e0001c003a00e0428000e10f500013
:1025b00003003a0060f02800550a070007003700c2
:1025c00010002000e042880000f22800500a0700b6
:1025d0005a28ef000000eb00d20707005628ef0052
:1025e00008003700b1428000908320000080400046
:1025f0008040eb0001487800b04280000000e80015
:10260000b0428800b0428000ee0f5000f5ff340069
:102610005228ef00e10237009183200091407800ba
:10262000f0c4b30080cf50005b003a00a1832000cb
:102630009140780000c5b30080cf500056003a00aa
:10264000b18320009140780050c4b30080cf500087
:1026500051003a00c183200091407800e0c4b300eb
:1026600080cf50004c003a00d18320009140780088
:1026700000c2b30080cf500047003a00e183200041
:102680009140780040c5b30080cf500042003a002e
:10269000f18320009140780080c4b30080cf5000c7
:1026a0003d003a00018420009140780050c4b300fe
:1026b00080cf500038003a0011842000914078000b
:1026c00000c2b30080cf500033003a0021842000c4
:1026d0009140780040c4b30080cf50002e003a00f3
:1026e0003184200091407800f0c4b30080cf5000c6
:1026f00029003a004184200091407800f0c4b300e2
:1027000080cf500024003a0051842000914078008e
:1027100020c5b30080cf50001f003a00a0428000c7
:102720000000e0001c003a00f0428000e10f500081
:1027300003003a0020f32800f509070007003700de
:1027400010002000f042880000f52800f009070082
:102750006028ef0020002000370707005628ef0010
:1027600008003700b14280009083200000804000c4
:102770008040eb0001487800b04280000000e80093
:10278000b0428800b0428000ee0f5000f5ff3400e8
:102790005228ef0081023700918320009140780099
:1027a00030c4b30080cf500060003a00a183200005
:1027b00091407800c0c4b30080cf50005b003a0065
:1027c000b183200091407800f0c4b30080cf500066
:1027d00056003a00c18320009140780030c5b30014
:1027e00080cf500051003a00d18320009140780002
:1027f00050c4b30080cf50004c003a00e183200069
:102800009140780000c2b30080cf500047003a00ea
:10281000f18320009140780040c5b30080cf500084
:1028200042003a00018420009140780080c4b30047
:1028300080cf50003d003a00118420009140780084
:1028400050c4b30080cf500038003a0021842000eb
:102850009140780000c2b30080cf500033003a00ae
:10286000318420009140780040c4b30080cf5000f4
:102870002e003a004184200091407800f0c4b3005b
:1028800080cf500029003a00518420009140780008
:10289000f0c4b30080cf500024003a0061842000cf
:1028a0009140780020c5b30080cf50001f003a004f
:1028b000a04280000000e0001c003a0000438000bd
:1028c000e10f500003003a0080f62800900907004d
:1028d00007003700100020000043880080f828001f
:1028e0008b0907005e28ef000000eb00d20607000e
:1028f0005628ef0008003700b14280009083200086
:10290000008040008040eb0001487800b042800029
:102910000000e800b0428800b0428000ee0f500096
:10292000f5ff34005228ef001c02370020438000de
:10293000e10f50004e00320091832000914078005a
:1029400030c4b30080cf5000bd003a00a183200006
:102950009140780080c4b30080cf5000b8003a00a6
:10296000b18320009140780010c4b30080cf5000a4
:10297000b3003a00c183200091407800e0c4b30066
:1029800080cf5000ae003a00d18320009140780003
:1029900070c4b30080cf5000a9003a00e18320004a
:1029a0009140780050c4b30080cf5000a4003a009a
:1029b000f18320009140780000c2b30080cf500026
:1029c0009f003a00018420009140780000c5b300c8
:1029d00080cf50009a003a00118420009140780086
:1029e00010c4b30080cf500095003a00218420002d
:1029f0009140780030c5b30080cf500090003a007d
:102a0000318420009140780030c5b30080cf500061
:102a10008b003a00418420009140780070c5b300db
:102a200080cf500086003a00518420009140780009
:102a3000f0c4b30080cf500081003a0061842000d0
:102a40009140780020c5b30080cf50007c003a0050
:102a5000718420009140780040c4b30080cf5000c2
:102a600077003a00a04280000000e00074003a00c5
:102a7000400620006106070020438000e10f50005f
:102a80005a003a00918320009140780000c3b300bf
:102a900080cf50004f003400918320009140780097
:102aa00090c3b30080cf50004a003c00a1832000b7
:102ab0009140780000c3b30080cf5000450034003f
:102ac000a18320009140780090c3b30080cf5000d4
:102ad00040003c00b18320009140780000c3b30067
:102ae00080cf50003b003400b1832000914078003b
:102af00090c3b30080cf500036003c00c18320005b
:102b00009140780000c3b30080cf50003100340002
:102b1000c18320009140780090c3b30080cf500063
:102b20002c003c003dc8bf00fe4f500029003c0077
:102b300040062000310607005828ef000800370043
:102b4000c1428000d0842000008040008040eb0023
:102b500001487800c04280000000e800c0428800c0
:102b6000c0428000e30f5000f5ff34004006200013
:102b7000220607006228ef000b0037001243800096
:102b80001143800090832000008040009040780036
:102b9000d0842000000041000148780010438000ec
:102ba0000000e8001043880010438000e30f50004d
:102bb000f2ff34004006200010060700d0842000f9
:102bc000a608070000fa2800d10807006428ef00d3
:102bd0000c00370039c8bf00ff4f50000800340018
:102be000a0fb2800ca0807000600370090ff280055
:102bf000c7080700100020002043880001003700ac
:102c0000000000005628ef0008003700b1428000a5
:102c100090832000008040008040eb000148780055
:102c2000b04280000000e800b0428800b04280005e
:102c3000ee0f5000f5ff34005228ef005701370027
:102c4000204380000000e00045fd3a0039c8bf0085
:102c5000ff4f500044fd34009183200091407800e4
:102c600030c4b30080cf500041fd3200a18320006a
:102c70009140780080c4b30080cf50003efd320008
:102c8000b18320009140780010c4b30080cf500081
:102c90003bfd3200c183200091407800e0c4b300c6
:102ca00080cf500038fd3200d18320009140780061
:102cb00070c4b30080cf500035fd3200e1832000a6
:102cc0009140780050c4b30080cf500032fd3200f4
:102cd000f18320009140780000c2b30080cf500003
:102ce0002ffd3200018420009140780000c5b30020
:102cf00080cf50002cfd32001184200091407800dc
:102d000010c4b30080cf500029fd32002184200080
:102d10009140780030c5b30080cf500026fd3200ce
:102d2000318420009140780030c5b30080cf50003e
:102d300023fd3200418420009140780070c5b3002b
:102d400080cf500020fd3200518420009140780057
:102d5000f0c4b30080cf50001dfd3200618420001c
:102d60009140780020c5b30080cf50001afd32009a
:102d7000718420009140780040c4b30080cf50009f
:102d800017fd3200918320009140780030c4b300d9
:102d900080cf500014fd3200a183200091407800c4
:102da000c0c4b30080cf500011fd3200b1832000b9
:102db00091407800f0c4b30080cf50000efd320087
:102dc000c18320009140780030c5b30080cf50000f
:102dd0000bfd3200d18320009140780050c4b30035
:102de00080cf500008fd3200e18320009140780040
:102df00000c2b30080cf500005fd3200f1832000f7
:102e00009140780040c5b30080cf500002fd3200f1
:102e1000018420009140780080c4b30080cf50002e
:102e2000fffc3200118420009140780050c4b300b0
:102e300080cf5000fcfc32002184200091407800bb
:102e400000c2b30080cf5000f9fc32003184200072
:102e50009140780040c4b30080cf5000f6fc3200af
:102e60004184200091407800f0c4b30080cf50002e
:102e7000f3fc32005184200091407800f0c4b3008c
:102e800080cf5000f0fc3200618420009140780037
:102e900020c5b30080cf5000edfc320091832000ac
:102ea00091407800f0c4b30080cf5000eafc3200bb
:102eb000a18320009140780000c5b30080cf50006e
:102ec000e7fc3200b18320009140780050c4b30089
:102ed00080cf5000e4fc3200c18320009140780094
:102ee000e0c4b30080cf5000e1fc3200d183200069
:102ef0009140780000c2b30080cf5000defc320069
:102f0000e18320009140780040c5b30080cf50009d
:102f1000dbfc3200f18320009140780080c4b300d4
:102f200080cf5000d8fc320001842000914078000e
:102f300050c4b30080cf5000d5fc32001184200073
:102f40009140780000c2b30080cf5000d2fc320024
:102f5000218420009140780040c4b30080cf50000d
:102f6000cffc32003184200091407800f0c4b300df
:102f700080cf5000ccfc320041842000914078008a
:102f8000f0c4b30080cf5000c9fc3200518420004f
:102f90009140780020c5b30080cf5000c6fc3200bd
:102fa000918320009140780030c5b30080cf50005d
:102fb000c3fc3200a18320009140780040c5b300db
:102fc00080cf5000c0fc3200b183200091407800d7
:102fd000f0c4b30080cf5000bdfc3200c18320009c
:102fe0009140780000c5b30080cf5000bafc320099
:102ff000d18320009140780000c2b30080cf500000
:10300000b7fc3200e18320009140780010c4b30087
:1030100080cf5000b4fc3200f18320009140780052
:10302000c0c4b30080cf5000b1fc32000184200046
:103030009140780010c4b30080cf5000aefc320045
:10304000118420009140780020c5b30080cf50004b
:10305000abfc32002184200091407800d0c4b30042
:1030600080cf5000a8fc320091832000914078006e
:1030700030c5b30080cf5000a5fc3200a1832000f2
:103080009140780040c5b30080cf5000a2fc3200d0
:10309000b18320009140780010c4b30080cf50006d
:1030a0009ffc3200c18320009140780020c5b3000e
:1030b00080cf50009cfc3200d183200091407800ea
:1030c00040c5b30080cf500099fc3200e18320005e
:1030d0009140780000c2b30080cf500096fc3200cf
:1030e000f18320009140780010c4b30080cf5000dd
:1030f00093fc32000184200091407800c0c4b300ea
:1031000080cf500090fc3200118420009140780064
:1031100010c4b30080cf50008dfc32002184200009
:103120009140780020c5b30080cf50008afc320067
:103130003184200091407800d0c4b30080cf50008b
:1031400087fc3200a04280000000e00086fc3a00cc
:10315000803e2000a9040700500129006c070700e9
:103160005628ef0008003700b1428000908320000d
:10317000008040008040eb0001487800b0428000b1
:103180000000e800b0428800b0428000ee0f50001e
:10319000f5ff34005228ef0074fc370073fc370051
:1031a0000200fa00004f78001e4078000004e000a2
:1031b00004003200101780000050a0001017880093
:1031c0000400370011178000f0fd2f000080600020
:1031d000101788000080fa00000006000200fa00c4
:1031e000004f78001e4078000004e0000400320028
:1031f000101780000040a00010178800040037005e
:1032000011178000f0fe2f0000806000101788006a
:103210000080fa00000006000200fa00004f78006b
:103220001e4078000004e000040032001017800007
:103230000010a0001017880004003700111780004c
:10324000d0ff2f0000806000101788000080fa0077
:10325000000006000200fa00004f78001e407800cf
:103260000004e00004003200101780000000a000fd
:10327000101788000400370011178000e0ff2f00ae
:1032800000806000101788000080fa00000006002f
:103290000200fa00004f78001e4078000004e000b1
:1032a00004003200501680000050a0005016880024
:1032b0000400370051168000f0fd2f0000806000f0
:1032c000501688000080fa00000006000200fa0094
:1032d000004f78001e4078000004e0000400320037
:1032e000501680000040a0005016880004003700ef
:1032f00051168000f0fe2f000080600050168800fc
:103300000080fa00000006000000fa00dea2a9001a
:10331000de82a900de22a900de02a900a8a2a80080
:10332000c6a2a900a882a800c682a900a802a80077
:10333000c602a900a822a800c622a900a842a80087
:10334000c642a900a862a800c662a900d202a900cc
:10335000d222a900d242a900d262a9000080fa00bc
:10336000000006000200fa00004f78001e407800be
:103370000004e00008003a00d202a900d222a9000d
:10338000d242a900d262a900c662a900c642a90021
:10339000c622a900c602a9001e407800e14f5000d5
:1033a00008003a00d202a800d222a800d242a80007
:1033b000d262a800c662a800c642a800c622a80021
:1033c000c602a8000080fa00000006000400fa000f
:1033d00020479800ae409000014f7800b116800061
:1033e00000ff2f0000806000b0168800511680009a
:1033f00000ff2f0000806000501688009e4078007b
:103400006fc06000104798001e4090008080fb0055
:103410005016800001007000501688001e80fb00ce
:103420004400de00004f78009e80fb00b016800054
:1034300001007000b01688000080fa00000006004d
:103440000200fa00a0168000004f78009e4078002d
:10345000400020000008dd00004f7800401680008a
:10346000104798001e4090006f4060001047980081
:103470001e4090001e404000104798001e409000e3
:103480000080fa00000006000000fa0010c0b3003f
:1034900052ff07000040eb0050ff07000080fa00d9
:1034a000000006000200fa00004f78000040eb0028
:1034b00068ff07000040eb0057ff07001e40780040
:1034c000c2ff0700f0ff07000080fa0000000600be
:1034d0000400fa00100798000000eb00000f7800cd
:1034e000010037001e0fe8001e0090009e007800cb
:1034f000808f5000fbff39000080fa0000000600ba
:103500000200fa000040eb0052ff070010c0b300b9
:1035100041ff070010c0b30092ff070010c0b300c6
:103520002eff0700c6ff0700004f78000040eb00a9
:103530002aff070002003700c1ff0700004f780094
:103540001e4078000004e000fbff35000080fa0018
:10355000000006000200fa00004f7800f0c3b3003c
:103560009e40780080cf500008003e0010c0b3009d
:10357000320007001e4078000064a000c9ff070069
:1035800010c0b30070e8b7000a0037001e40780092
:103590000004e000070035000040eb0027000700b2
:1035a00000ccb3001e4040000064a000bdff070037
:1035b0007068ef001e417800e186200082487800a4
:1035c0000080fa00000006000200fa00004f7800b8
:1035d0001e407800e74f500006003e0080cbb3004d
:1035e0001e407000afff07001e417800f1862000ea
:1035f000824878000080fa00000006000200fa000d
:10360000004f7800114798001e407800d1ff070056
:103610001e409000ecff07000080fa00000006004a
:103620000200fa00004f780000ccb3001e4070008a
:103630009cff07000080fa00000006000200fa006c
:10364000004f78000040eb0002ff07001e407800aa
:103650000004e0000a003a000040eb00eefe070024
:1036600010c0b30019ff07000040eb0008ff07007f
:10367000f0c3b3008bff07007068ef000a0037004b
:103680000040eb00e4fe07000040eb000fff0700e6
:1036900010c0b300fefe0700f0c3b30081ff0700b7
:1036a00010c0b30070e8b7000080fa000000060008
:1036b0000200fa0010c0b3002aff070010c0b300d8
:1036c000e4fe070010c0b300d3fe07006eff070042
:1036d00010c0b300c1fe070059ff0700004f78007b
:1036e0000040eb00bdfe07000040eb001dff07009f
:1036f0000040eb00d7fe07000040eb00c6fe0700cd
:103700001e4078000080fa00000006000000fa0069
:103710000040eb002dff07000040eb00cdfe07004e
:103720000040eb00bcfe07000040eb00abfe0700d2
:103730000040eb00e5fe07000040eb00d4fe070070
:1037400010c0b30096fe0700a000200060ff070035
:103750000040eb0092fe0700a00020005cff070085
:1037600010c0b3008efe070010c0b300b3ff070007
:10377000e0c3b3004bff070000ccb30049ff0700d4
:1037800080cbb30047ff070000c4b30045ff07002c
:10379000f0c3b30043ff07000040eb00a7ff0700a2
:1037a000e0c3b3003fff070000ccb3003dff0700bc
:1037b00080cbb3003bff070000c4b30039ff070014
:1037c000f0c3b30037ff07000080fa0000000600d6
:1037d0000200fa00004f780010c0b3009dfe070001
:1037e0000040eb008cfe07001e407800f7fe07004b
:1037f00025ff07000080fa00000006000200fa0022
:103800000040eb00104798001d0037009e409000dc
:103810000040eb0079ff07000040eb00004f78000c
:10382000030037000040eb00e9ff07001e4fe800ef
:10383000f0c3b3009e40780080cf5000f9ff3600ff
:103840009e40900000c4b3006cff07000040eb00f6
:10385000004f7800030037000040eb00dcff07005a
:103860001e4fe800f0c3b3009e40780080cf5000a8
:10387000f9ff36001e4090000040e8001047980015
:103880001e409000e74f5000e0ff36000080fa0035
:10389000000006000200fa000040eb00104798000c
:1038a0001d0037009e4090000040eb0053ff0700d2
:1038b0000040eb00004f78000300370000c0eb0031
:1038c000c3ff07001e4fe800f0c3b3009e4078001e
:1038d00080cf5000f9ff36009e40900000c4b30036
:1038e00046ff07000040eb00004f78000300370060
:1038f00000c0eb00b6ff07001e4fe800f0c3b300a6
:103900009e40780080cf5000f9ff36001e409000a6
:103910000040e800104798001e409000e74f50001c
:10392000e0ff36000080fa00000006000400fa0004
:10393000100798000040eb00104798002c0037005b
:103940009e4090000040eb002cff07000040eb0081
:10395000004f78000a0037001e4090000080fb00f6
:10396000c700dd001e80fb00008040009e0090002c
:10397000008040001040780095ff07001e4fe800cf
:10398000f0c3b3009e40780080cf5000f2ff3600b5
:103990009e40900000c4b30018ff07000040eb00f9
:1039a000004f78000b0037001e4090000080fb00a5
:1039b000c700dd001e80fb00008040000004b00056
:1039c0009e009000008040001040780080ff0700bb
:1039d0001e4fe800f0c3b3009e40780080cf500037
:1039e000f1ff36001e4090000040e80010479800ac
:1039f0001e409000e74f5000d1ff36000080fa00d3
:103a0000000006000400fa002047980031479800a3
:103a10000040eb00004f78003e4090000080fb002b
:103a20004300de0000407800804078002e40900087
:103a3000f2fe07001eff0700004f78003e40900096
:103a40000080fb004300de000040780080407800ea
:103a50002e409000e9fe07003e4090000080fb00f1
:103a600067006000110020000008dd008040780041
:103a70001e40780000c0700055ff07000080fa006b
:103a8000000006000400fa00204798003147980023
:103a90000040eb00004f78003e4090000080fb00ab
:103aa0004300de0000407800804078002e40900007
:103ab000d2fe0700fefe0700004f78003e40900057
:103ac0000080fb004300de0000407800804078006a
:103ad0002e409000c9fe07003e4090000080fb0091
:103ae00067006000110020000008dd000040780041
:103af00080c0ea001e40780000c0600034ff07006c
:103b00000080fa00000006000c00fa00004f980048
:103b1000114f9800224f98000000eb00000f780032
:103b20000000eb00100798000000eb002007980051
:103b30009e4890000e48900000c0500060479800da
:103b40002e4890000080fb00100798002e4890003f
:103b50008080fb00e0ff2f000088b90000007800a3
:103b6000630f4000640037001e0090008040780022
:103b70001e48900080c040002e0090000041780058
:103b80000e489000004041009eff07001e0090007c
:103b9000004078009e48900080c050002e009000a9
:103ba000004178000e4890000040410095ff07005a
:103bb0001e009000804078001e48900080c04000a9
:103bc0002e009000004078000e4990000040510007
:103bd0008cff07001e009000004078009e48900077
:103be00080c050002e009000004078000e499000e8
:103bf0000040510083ff07002e00900080407800b5
:103c00001e48900080c040001e00900000417800d7
:103c10001e489000004141006e409000004051005d
:103c200078ff07002e009000004078009e4890002a
:103c300080c050001e009000004178001e48900097
:103c4000004141006e409000004051006dff0700b0
:103c50002e009000804078001e48900080c04000f8
:103c60001e009000004078001e4990000041510065
:103c70006e4090000040510062ff07002e0090004f
:103c8000004078009e48900080c050001e009000c8
:103c9000004078001e499000004151006e409000a5
:103ca0000040510057ff07001e0078000000e000b0
:103cb00005003d002e0090004200dd00660040003f
:103cc0001e0f400009003700ae0090001e0090005b
:103cd000008050004200dd006a0040001e0f4000de
:103ce0001e0090000000e900100798002e009000d0
:103cf0000000e80020079800ae0090001e00900031
:103d0000808f500098ff34000080fa000000060009
:103d10000600fa0020479800314798004247980073
:103d2000534798000040eb00004f78000040eb0044
:103d3000004f7800090037002e4090001e404000e0
:103d4000be4090002fff07002e4090001e40400014
:103d5000de4090002bff07001e4fe8009e80fb0016
:103d60004e4090000081fb002e4090000080fb0040
:103d7000000051000000e800808f5000eeff350089
:103d80000040eb00004f78000b0037003e409000f1
:103d90001e404000804078002e40900019ff070030
:103da0003e4090001e404000804078004e40900011
:103db00014ff07001e4fe8009e80fb005e4090004d
:103dc0000081fb003e4090000080fb00000051009d
:103dd0000000e800808f5000ecff35000080fa0002
:103de000000006000400fa00204798006ec8bf00db
:103df0000080fb00e5004000f0072000808f5000ad
:103e0000080034006fc8bf000040e8006fe8b7004a
:103e10006fc8bf00e74f5000010036006f68ef0029
:103e20006e68ef00f1862000914078006ec8bf00f8
:103e3000f2fd07000040eb00004f78001300370050
:103e40002e4090000000fb006500b90000007800e3
:103e500001f62f00808040001e80fb0000804000a3
:103e6000c1ad28006140780059fe07006ec8bf0050
:103e70000040e8006ee8b700f1862000914078002d
:103e80006ec8bf00ddfd07001e4fe8001e40780031
:103e9000e44f5000eaff36000040eb004cfe070004
:103ea0006ec8bf000040e8006ee8b7000080fa006e
:103eb000000006000400fa00204798006ec8bf000a
:103ec0000080fb00e8004000f0072000808f5000d9
:103ed0000b0034006fc8bf000040e8006fe8b70077
:103ee0006fc8bf000040e8006fe8b7006fc8bf00b0
:103ef000e74f5000010036006f68ef006e68ef007a
:103f00000040eb00004f78003e003700f1862000b3
:103f1000914078006ec8bf00b8fd07002e409000a9
:103f20000000fb000002b100c400dd001e80fb00a9
:103f300000804000c15228006140780024fe070044
:103f40006fc8bf000040e8008040780080cbb3001d
:103f500000c0700053fd0700e1862000914078000a
:103f6000f0c3b30080cf500008003e0010c0b30083
:103f7000b2fd07006ec8bf000064a00049fd070045
:103f800010c0b30070e8b7000c0037006ec8bf0067
:103f90000004e000090035000040eb00a7fd070029
:103fa000e18620009140780000ccb30000c04000c2
:103fb0000064a0003bfd07007068ef002e409000f9
:103fc0000000fb000002b100c400dd001e80fb0009
:103fd0000080400068004000c15228006140780025
:103fe000fbfd07006ec8bf000040e8006ee8b700a8
:103ff000f1862000914078006ec8bf007ffd070069
:104000001e4fe8001e407800e74f5000bfff36000b
:104010000080fa00000006000200fa00000f78009d
:10402000040037001e007800104078006dff070084
:104030001e0fe8001e007800104078000004e00029
:10404000f8ff3a000080fa00000006000600fa00bf
:10405000404798004e4090000080fb00cf80de007b
:10406000a3f107006266260063fa230043f107000c
:1040700084f10700204798000040eb00004f7800d3
:1040800014003700ae409000114798000700370039
:104090009e4090001e4078005afe07009e4090000f
:1040a0002e40900000c04000104798001e40900035
:1040b0008080fb002e4090000080fb000204200066
:1040c00000005100808f5000f1ff35009e407800c5
:1040d00063cf4000e0c7b3009e40780080cf50001f
:1040e000e8ff36004e40900000cfe9000f00370097
:1040f0000040eb0010479800060037009e409000fb
:104100001e4078003ffe07001e40900000c0e800ff
:10411000104798009e409000e0c3b30080cf50004d
:10412000f6ff36004e4090001e4f4000b0c7b3006f
:104130009e40780080cf5000edff36000080fa00ee
:10414000000006000600fa0020479800314798005a
:1041500042479800534798000040eb00004f78001a
:104160000040eb00004f7800090037002e4090001f
:104170001e404000be40900042fe07002e409000ce
:104180001e404000de4090003efe07001e4fe8004b
:104190009e80fb004e4090000081fb002e4090006e
:1041a0000080fb00000051000000e800808f5000fc
:1041b000eeff35000040eb00004f78000b003700a9
:1041c0003e4090001e404000804078002e4090000d
:1041d0002cfe07003e4090001e40400080407800ca
:1041e0004e40900027fe07001e4fe8009e80fb0017
:1041f0005e4090000081fb003e4090000080fb008c
:10420000000051000000e800808f5000ecff3500f6
:104210000080fa00000006000000fa00cda2a9000c
:10422000cdc2a9000080fa00000006000400fa00d8
:10423000100798000000eb00000f78000100370025
:104240001e0fe8001e0090009e007800808f500036
:10425000fbff39000080fa00000006000000fa00b1
:10426000cfa2a800cfc2a900d1a2a800d1c2a900a4
:10427000401f2000edff07000041800070408800d3
:10428000d1a2a900d1c2a800cfa2a900cfc2a80084
:10429000401f2000e5ff070010418000804088009b
:1042a00070408000f003b1008000eb0013f10700c4
:1042b00052ac230043d1230065f10700f1f0070061
:1042c000000078005040880080408000d00bb10092
:1042d0008000eb0009f1070052672c0003ca23009d
:1042e0005bf10700e7f007000000780060408800fd
:1042f0000080fa00000006000400fa001007980091
:104300001e009000c300de00500c22000008b80020
:104310004408de00004f780001c3b3001ec0400017
:10432000b0fe07009e80fb0080c12f000088b9000e
:10433000000078009e009000008040001007980068
:104340001e009000c200de00b04721000008b80047
:104350000100d100004f780001c3b3001ec040002f
:10436000a0fe07009e80fb00c0f92f000088b90066
:10437000000078009e009000008040001007980028
:104380009e009000d0cc2c000008b8004308de004e
:10439000004f780001c3b3001ec0400091fe07002b
:1043a0009e80fb0060ff2f000088b90000007800ad
:1043b0009e00900000804000100798001e009000b2
:1043c000004078000043b00086fe07000080fa003d
:1043d000000006000200fa00000f78000028ef003d
:1043e000000000009e00780000408000808f500098
:1043f000fcff3e000080fa00000006000200fa0008
:10440000000f78000828ef00000000009e007800f0
:1044100040408000808f5000fcff3e000080fa008a
:10442000000006000000fa00d322a9005303070091
:104430000080fa00000006000400fa00100798004f
:104440001e0090000000e0000f003a000000eb00aa
:10445000000f780008003700d722a800c000200015
:10446000dcff0700d722a90040182000d9ff070071
:10447000d722a8001e0fe8001e007800f30f50009e
:10448000f5ff3400200037001e009000e10f5000bf
:104490000f003a000000eb00000f78000800370022
:1044a000d722a800c0012000caff0700d722a90018
:1044b00040172000c7ff0700d722a8001e0fe80002
:1044c0001e007800f30f5000f5ff34000e00370097
:1044d0000000eb00000f780008003700d722a8008a
:1044e00000032000bbff0700d722a9000016200010
:1044f000b8ff0700d722a8001e0fe8001e007800b2
:10450000f30f5000f5ff34000080fa0000000600b1
:104510000000fa008220a9008600a9000080fa00ad
:10452000000006000200fa00000f78001e0078006c
:10453000e10f500002003a008e00a8000100370091
:104540008e00a9000080fa00000006000000fa00ba
:10455000c562a900c162a9000080fa00000006003f
:104560000200fa00000f78001e007800e10f5000f2
:1045700004003a001000200030408800cb42a80020
:10458000010037000628ef000080fa000000060056
:104590000000fa0013c1b300d2c1b30041c0b300a0
:1045a00060c0b300dafd070013c1b300c2c3b3009b
:1045b00041c0b30050c2b300d5fd070013c1b30022
:1045c000b2c5b30041c0b30040c4b300d0fd070082
:1045d00013c2b300d2c1b30041c1b30060c0b30085
:1045e000cbfd070013c2b300c2c3b30041c1b30087
:1045f00050c2b300c6fd070013c2b300b2c5b3007a
:1046000041c1b30040c4b300c1fd070013c3b300f0
:10461000d2c1b30041c2b30060c0b300bcfd07000b
:1046200013c3b300c2c3b30041c2b30050c2b3004e
:10463000b7fd070013c3b300b2c5b30041c2b30056
:1046400040c4b300b2fd070013c2b300a2c7b30059
:1046500041c1b30030c6b300adfd070013c3b300c2
:10466000a2c7b30041c2b30030c6b300a8fd070023
:1046700031c0b300c0c6b300e0fb0700400329000f
:1046800065fe070051c0b30090c6b300dbfb070016
:104690006003290060fe070011c0b300f0c0b30042
:1046a000d6fb0700900329005bfe070011c0b30092
:1046b000e0c2b300d1fb0700b003290056fe07009b
:1046c00011c0b300d0c4b300ccfb0700d003290055
:1046d00051fe070031c0b300f0c0b300c7fb0700b4
:1046e000f00329004cfe070031c0b300e0c2b30064
:1046f000c2fb07001004290047fe070031c0b300c9
:10470000d0c4b300bdfb07003004290042fe0700ff
:1047100051c0b300f0c0b300b8fb0700500429003b
:104720003dfe070051c0b300e0c2b300b3fb070079
:104730007004290038fe070051c0b300d0c4b30094
:10474000aefb07009004290033fe070071c0b300e0
:1047500060c0b300a9fb0700b00429002efe0700cb
:104760000080fa00000006000000fa0050408000bf
:10477000ec0f500021003600514080001002200054
:10478000808f50001d003e0061408000000320002b
:10479000808f50001900360061408000a003200087
:1047a000808f500015003e0041438000f00520003e
:1047b000808f500011003c00404380000040780092
:1047c00071c0b3008dfb07009003290012fe0700a3
:1047d0004043800069004000404388004141800020
:1047e000008320000080400011c3b300014878001e
:1047f000404180000000e8004041880051408000b6
:1048000090022000808f500021003600514080002f
:10481000c0032000808f50001d003e0061408000da
:1048200000032000808f5000190036006140800096
:10483000a0032000808f500015003e0041438000ff
:10484000f0052000808f500011003c0040438000a4
:104850000040780071c0b30068fb0700b003290076
:10486000edfd0700404380006900400040438800a0
:1048700041418000008320000080400021c3b3003c
:1048800001487800404180000000e8004041880075
:104890005140800050042000808f500021003600dd
:1048a0005140800090052000808f50001d003e0088
:1048b0006140800000032000808f50001900360006
:1048c00061408000a0032000808f500015003e0052
:1048d00041438000f0052000808f500011003c0013
:1048e000404380000040780071c0b30043fb0700e4
:1048f000d0032900c8fd0700404380006900400044
:104900004043880041418000008320000080400037
:1049100031c3b30001487800404180000000e80046
:104920004041880050408000ec0f500021003600cc
:104930005140800010022000808f50001d003e007a
:104940006140800000022000808f50001900360076
:104950006140800090022000808f500015003e00d2
:1049600041438000f0052000808f500011003c0082
:10497000404380000040780071c0b3001ffb070077
:10498000f0032900a4fd07004043800069004000b7
:1049900040438800414180000083200000804000a7
:1049a00041c3b30001487800404180000000e800a6
:1049b000404188005140800090022000808f5000cc
:1049c0002100360051408000c0032000808f50003d
:1049d0001d003e006140800000022000808f5000da
:1049e000190036006140800090022000808f500046
:1049f00015003e0041438000f0052000808f5000ec
:104a000011003c00404380000040780071c0b300ba
:104a1000fafa0700100429007ffd070040438000d8
:104a2000690040004043880041418000008320002d
:104a30000080400051c3b30001487800404180002d
:104a40000000e800404188005140800050042000f0
:104a5000808f5000210036005140800090052000da
:104a6000808f50001d003e00614080000002200049
:104a7000808f5000190036006140800090022000b5
:104a8000808f500015003e0041438000f00520005b
:104a9000808f500011003c004043800000407800af
:104aa00071c0b300d5fa0700300429005afd070091
:104ab000404380006900400040438800414180003d
:104ac000008320000080400061c3b30001487800eb
:104ad000404180000000e8004041880050408000d4
:104ae000ec0f50001f0036005140800010022000e3
:104af000808f50001b003e0060408000f20f50008d
:104b00001800360060408000fd0f500015003e0088
:104b100041438000f0052000808f500011003c00d0
:104b2000404380000040780071c0b300b3fa070032
:104b30005004290038fd0700404380006900400010
:104b400040438800414180000083200000804000f5
:104b500071c3b30001487800404180000000e800c4
:104b6000404188005140800090022000808f50001a
:104b70001f00360051408000c0032000808f50008d
:104b80001b003e0060408000f20f5000180036000d
:104b900060408000fd0f500015003e004143800042
:104ba000f0052000808f500011003c004043800041
:104bb0000040780071c0b30090fa0700700429002b
:104bc00015fd070040438000690040004043880015
:104bd00041418000008320000080400081c3b30079
:104be00001487800404180000000e8004041880012
:104bf0005140800050042000808f50001f0036007c
:104c00005140800090052000808f50001b003e0026
:104c100060408000f20f50001800360060408000b5
:104c2000fd0f500015003e0041438000f0052000bc
:104c3000808f500011003c0040438000004078000d
:104c400071c0b3006dfa070090042900f2fc070060
:104c5000404380006900400040438800414180009b
:104c6000008320000080400091c3b3000148780019
:104c7000404180000000e800404188005140800031
:104c800040062000808f5000140036005140800004
:104c900050072000808f500010003e0061408000cf
:104ca00000022000808f50000c0036006140800020
:104cb00090022000808f500008003e0071c0b300b9
:104cc000c0c3b3004dfa070060052900d2fc0700fd
:104cd000c0032000404388002828ef005140800096
:104ce00040062000808f5000380036005140800080
:104cf00050072000808f500036003e00604080004a
:104d0000f20f50003500360060408000fd0f50006b
:104d100034003e004200200001832000a0862000d5
:104d20003eef07000000e00015003a0071c0b3003c
:104d3000c0c3b30031fa070000062900b6fc070023
:104d40000000eb0006fe070080382100abfd0700e5
:104d500071c0b300c0c3b30028fa07006005290082
:104d6000adfc07002828ef00c00320004043880066
:104d700000712200a1fd0700cb42a9000f003700ff
:104d800071c0b300c0c3b3001cfa0700900629002d
:104d9000a1fc07008038210098fd070071c0b30016
:104da000c0c3b30015fa0700400729009afc0700aa
:104db0002828ef00c0032000404388002a28ef0085
:104dc0000900370025fd070007003700000000003c
:104dd000050037000000000003003700000000005d
:104de000010037000000000051408000703e2000ac
:104df000808f5000f3ff36000080fa0000000600ac
:104e00000000fa00a982a800c782a8000080fa006a
:104e1000000006000000fa0041168000000021009a
:104e2000008060000000e00002003a001000200056
:104e30009040880090408000e10f500005003a004b
:104e400010002000c6fd0700100020007afd0700ba
:104e50001228ef000080fa00000006000200fa00ad
:104e6000000f78002e28ef00080037007141800005
:104e7000a0862000008040008040eb0001487800c0
:104e8000704180000000e80070418800704180009f
:104e9000e30f5000f5ff34002c28ef000a00370024
:104ea00062418000604180001e0040009040780018
:104eb000a086200000004100014878006041800089
:104ec0000000e8006041880060418000e30f50006e
:104ed000f3ff34000080fa00000006000000fa0032
:104ee00000042000a01088000d42a9008d20a80019
:104ef00071108000c0ff2f000080600070108800db
:104f00000de2a8000f42a8000080fa000000060091
:104f10000000fa00881f7800000478000e003700b7
:104f2000184078000000fb001100070018407800ce
:104f3000ed4f500002003a00d00020000c000700a6
:104f400018407800ea4f500002003a00a00020000c
:104f5000070007000804e800184078000004e0009b
:104f6000efff3a004f0478000080fa0000000600ce
:104f70000200fa00000f78000000000071108000ad
:104f800000102000008060000000e000fbff320005
:104f90006010800066006000e60f500003003a00d9
:104fa0009e0078008110880003003700f00f200079
:104fb0001e006000801088000080fa0000000600db
:104fc0000400fa00100798001e009000c300de00e5
:104fd000500c22000008b8004408de00004f7800a2
:104fe0001e80fb000003b000e1ff07009e80fb0075
:104ff00080c12f000088b900000078009e0090005a
:1050000000804000100798001e009000c200de00e3
:10501000b04721000008b8000100d100004f78001f
:105020001e80fb000003b000d1ff07009e80fb0044
:10503000c0f92f000088b900000078009e009000a1
:1050400000804000100798009e009000d0cc2c00fb
:105050000008b8004308de00004f78001e80fb0007
:105060000003b000c2ff07009e80fb0060ff2f001e
:105070000088b900000078009e0090000080400089
:10508000100798001e0090000003b000b8ff070052
:105090000080fa00000006000000fa00a902a90042
:1050a000a922a900c702a800c722a8000080fa0010
:1050b000000006000000fa00a1a2a900011580006e
:1050c000f0cf2f00008060000015880001158000df
:1050d000000e20000100700000158800a022a8002a
:1050e0001115800000002e000100700010158800ce
:1050f000a342a8001115800030fc2f000080600042
:105100000020a00010158800a222a900a202a90078
:105110002115800000f0210001007000201588009a
:10512000a4e2a8002115800000fc2f000080600090
:10513000f001b30020158800a782a900a682a9006b
:105140003115800000ff2f000080600030158800be
:1051500031158000f00f2f000080600030158800ae
:105160000030200050158800a042a8008560a800eb
:105170008d60a8000080fa00000006000000fa0020
:105180000621ef00204e2000600888001021a900b1
:1051900084c0a9008cc0a80011e1a8000080fa001a
:1051a000000006000000fa000021ef00d0072000f8
:1051b000100888000421a9008460a9008c60a80060
:0c51c00005e1a8000080fa0000000600d5
:020000040000fa
:1051cc006e08000004000000000000003808000019
:1051dc003000000000000000000800003800000053
:1051ec00000000006808000006000000020000003b
:0c51fc003c0031003233350000000000a0
:020000040000fa
:0200000401f009
:04000000e0790000a3
:020000040000fa
:0200000401f009
:04000400ff7f00007a
:020000040000fa
:0200000401f009
:04001400ffff0000ea
:00000001FF
